:100000000C9468100C9490100C9490100C94901018
:100010000C9490100C9490100C9490100C949010E0
:100020000C9490100C9490100C9490100C947129D6
:100030000C9490100C9490100C9490100C949010C0
:100040000C947D2A0C9490100C9490100C949010A9
:100050000C9490100C9490100C9490100C949010A0
:100060000C9490100C949010202020202020202010
:10007000203E202020202020232323202020202059
:100080002020202020202034202020202020232356
:100090006F6F204020232323232323232323232381
:1000A0002323232323232323202020202020202038
:1000B000203E202020202020232323202020202019
:1000C0002020202020202034202020202020232316
:1000D0006F6F20402020202023232323232323234A
:1000E00023232323232323232020202020202020F8
:1000F0002020202034202020202048232323482093
:100100002020482020204820202048202020202077
:10011000402048206F206F202323232323232323E1
:1001200023232323232323232020202020202020B7
:10013000202020203420202020202023232348207A
:100140002020202020204820202020202020202087
:10015000402020206F206F202323232323232323C9
:100160002323232323232323202020202020202077
:10017000202020202020202040202020202020205F
:100180006F202020202020206F6F2020202034206E
:100190006F6F6F20202323236F6F6F6F2023232324
:1001A0002323232323232323202020202020202037
:1001B000202020202020202020202020202020203F
:1001C00020202020202020204020202020203420FB
:1001D0006F202020202323236F202020202323236F
:1001E00023232323232323233420202020202020E3
:1001F000234820202020202020482023206F20205A
:1002000020482023206F2020232323232323482337
:1002100020202020202048206F204020232048201C
:100220002323232323232323402020202020202096
:1002300023482020202020206F4820232020202019
:100240006F482023202020202323232323234823F7
:100250002020202020204820202034202320482037
:100260002323232323232323342020202020202062
:100270002323232323232320206F6F2020202020CB
:10028000202323232323232320202020206F6F20BB
:100290002323232323232320406F6F20202020208B
:1002A0002323232323232323342020202020202022
:1002B0002323232323236F2020206F20202020208E
:1002C000206F23232323232320202020206F20207E
:1002D0002323232323236F2040206F20202020204E
:1002E00023232323232323232020202020342020E2
:1002F00020202020232323486F2020202023234850
:100300006F204020202058482323232323482323E1
:10031000232323232348232323232D20204823235F
:1003200023232323232323232020202020342020A1
:1003300020202020232323486F202020202323480F
:100340006F204020202058482323232323482323A1
:10035000232323232348232323236F2020482323DD
:100360002323232323232323202020202020342061
:100370002020202040202348202023202D202348F7
:1003800020202323232323482020202058202048D6
:10039000206F2D20232020482323232323232323BE
:1003A000232323232323232320202020202334201E
:1003B0002020582040202348202023206F6F2348EE
:1003C0002020232323232348202020205820204896
:1003D0002D6F2D2023202020232323232323232399
:1003E00023232323232323232020202020202020F5
:1003F00020203D20202020204823232020202020B2
:10040000482020202020202048403D20202034204B
:1004100023232323202323232323232320232323B2
:10042000232323232323232320203D202020202097
:1004300020206F202020202048232320202020203F
:100440004820202020202020484020202020342028
:100450002323232320232323232323232023232372
:100460002323232323232323202020202034202060
:1004700020482323202323482048202320202048CD
:1004800020482023202020484048202320206F207F
:100490002320202320206F20232020232020206FB2
:1004A00023232323232323232020205820345820B0
:1004B00020482323202323482048202320202D4880
:1004C00020482023202020484048202320206F203F
:1004D0006F20202320206F206F202D232020206FCD
:1004E0002323232323232323202D202034202020D3
:1004F0004823232023202348482020202323234847
:10050000202D202020202048202348232020204860
:10051000202048204020202023232323234820205C
:100520006F6F6F5858482323202D202034205820E7
:100530004823232023202348482020202323234806
:10054000202D202020202048202348232020204820
:10055000202048204020202023232323234820201C
:100560006F6F6F5858482D23202020206F202020A7
:100570002020206F2020232020206F2020232320D4
:10058000206F2020232320206F20202323202020C1
:100590006F402323202020202023232020202020E0
:1005A0002323342020202020202020206F202020E2
:1005B0002020206F2020232020206F202023232094
:1005C000206F2020232320202D20202323202020C3
:1005D0006F402323202020202023232020202020A0
:1005E00023233458202020202020202020202020B9
:1005F000206F20202020232020206F204020232037
:1006000023232323232323202020202020202020D5
:1006100020342020203D202023232320232348236F
:10062000232020203D6F48232D20202020205820EB
:10063000206F20202020232020206F2040202320F6
:100640002323232323232320202020202020202095
:1006500020342020203D2020232320202323482332
:10066000232020203D6F48232323232323232323D8
:10067000232323232323232323232323232323234A
:1006800020202020202020206F2040203E202034C9
:10069000232323232323202323232323232323232D
:1006A000232323232323232323232323232323231A
:1006B000232323232323232323232323232323230A
:1006C0006F2020203D2020206F2040203E2020341D
:1006D00023232323232320232323232323232023F0
:1006E00023232323232320232D203C20203E2020AE
:1006F00020232348232323202040204820206F202C
:1007000023232323202023232020202020202020D7
:10071000202023232323232320202020582034207B
:1007200023232320232323232D203C20203E20206D
:1007300020232348232323202040204820206F20EB
:100740002323232320202323202020202020202097
:100750002020232323232323202020203D20342056
:10076000232323205823232320202020202020203F
:1007700020202020203D202034203D20203D20200E
:1007800023233D23233D234820203D20203D204896
:1007900020203D20206F204820206F20402020482E
:1007A0002323232323232323202020202020202031
:1007B00020202020203D202034203D20203D2020CE
:1007C00023233D23203D234820203D20203D204859
:1007D00020203D20206F204820206F2040202048EE
:1007E000232323232323232320403D2020202020B4
:1007F00048232320202020204820202020202020A3
:100800004823232020203420482020202023232375
:10081000482020202020202048203D206F206F20CD
:10082000484848484823232320203D2020202020DA
:100830004820232020202020484020202020202045
:100840004823232020203420482020202023232335
:10085000482020202020202048203D206F206F208D
:1008600048234848482323232020202020202020DC
:100870002048484848484820204820202020482038
:10088000204820484820482020482034482048203C
:100890002048202048204820204848484820482018
:1008A0002020202020204840202020202020202000
:1008B000206F6F6F6F6F6F20206F202020206F20C0
:1008C000206F206F6F206F20206F20346F206F20EB
:1008D000206F20206F206F20206F6F6F6F206F20A0
:1008E0002020202020206F4020403D202020202D4F
:1008F000232348484820206F202020202323206FD6
:1009000020202020232020202020202023232323D8
:10091000202D20202023232320202020205858343D
:10092000202020202023232320403D202020206F32
:10093000202348484820206F202020202323206F98
:1009400020202020232D2020202D2020232323237E
:10095000202020202023232320202020205858340A
:100960002020202020232323232323232323232366
:100970002D2020206F2020202048202323204820C5
:10098000482023203423204820482358202348206F
:1009900048206F234820204848202020402020481D
:1009A0002323232323232323232323232323232317
:1009B0006F2020232D202020204820232320482082
:1009C000482023203423204820482358202348202F
:1009D00048206F23482020484820202040202048DD
:1009E00023232323232323232020202020202020EF
:1009F00020202020202020202020204020202020D7
:100A000020206F6F6F6F2020206F6F206F6F6F201F
:100A10006F6F206F6F6F6F6F6F6F6F6F6F346F6F70
:100A200023232323232323232020202020202020AE
:100A30002020202020202020202020402020202096
:100A400020206F6F6F6F20206F6F6F3C6F6F6F2074
:100A5000206F3E6F6F6F6F6F6F6F6F6F6F346F6F61
:100A60002323232323232323202D20202D206F2005
:100A7000202D2D2D2D346F20202D20202D6F6F2027
:100A8000202D2D2D2D406F20202048202048202073
:100A900020204823234820202020482020482020B0
:100AA0002020484848482020206F20206F20232005
:100AB000206F6F6F6F342320206F20206F2323203F
:100AC000206F6F6F6F40232020203D20203D20208D
:100AD00020203D23233D202020203D20203D20209C
:100AE00020203D3D3D3D202023232323232323237A
:100AF00023232323232323232323232323202020CF
:100B00002020206F6F6F6F6F40206F6F6F6F6F349B
:100B100023232323232323232323232323232323A5
:100B20002323232323232323232323232323232395
:100B3000232323232323232320202023232323238E
:100B400020206F6F6F6F6F20406F6F6F6F6F6F340C
:100B50002323232323232323232323232323232365
:100B60002323232323232323232323232020202061
:100B70002D2040202020206F2323232320202020ED
:100B80002020202320482323202020232048206FBA
:100B900020203D58202048202023232320202020CF
:100BA0002020342323232323232323232020202016
:100BB0002D2040202020206F2323232320202020AD
:100BC000206F2023204823236F6F20232048206F8D
:100BD00020203D582020482020232323202020208F
:100BE000206F342323232323232323232323204061
:100BF000202020586F6F2023206F232323232034AD
:100C00006F6F2020202320482323234820232048BF
:100C1000202020202D232048482323232323202065
:100C200048202020203C202023232323232320404E
:100C3000202020206F23202320202323232320343F
:100C40006F6F2020206F2023232323482023204858
:100C5000202020206F2320484823232323232020E3
:100C60004820202020202020406F202020202020ED
:100C7000486F3D203D203D34486F3D203D203D20C4
:100C8000486F3D203D203D20486F3D203D203D20C8
:100C9000486F3D203D203D20486F3D203D203D20B8
:100CA000486F3D203D203D20406F20202020202007
:100CB000486F3D203D203D20486F3D203D203D3484
:100CC00048203D203D203D20483D3D203D203D2009
:100CD000483D3D203D203D20483D3D3D3D203D20BF
:100CE000483D3D3D3D203D202020202D202020203E
:100CF00020206F6F6F202020206F6F6F6F6F20207C
:100D0000232020202020234820232058202320484F
:100D10002020233423202048202020232020204866
:100D200040202020202020482020202D202020206E
:100D300020206F6F6F202020206F2020206F202028
:100D4000232020202020234820232058202320480F
:100D50002020233423202048202020232020204826
:100D60004020206F202020482020204820342023AD
:100D7000202020482023232320202048202020201A
:100D80002020204823202020202020482020202010
:100D9000202020482020202020206F4820202020B4
:100DA00020206F484020202020202048203420236D
:100DB00020202048202323232020204820202020DA
:100DC00020202048202020202020204820202020D3
:100DD000202020482020202020206F482020202074
:100DE00020206F4840202020232020202020202069
:100DF00023232020202020232323232020202323DB
:100E0000345820202023232323232348203D20401F
:100E10002323204820232323232020202020232392
:100E200020206F6F6F202D232320202020202020C2
:100E3000232320202020202323232320202023239A
:100E4000345820202023232323232348203D2040DF
:100E50002323204820232323232020202020232352
:100E600020206F6F2D202023202058342020202088
:100E70002348232323202020204820202020202016
:100E80002048202020202020204820202020202D05
:100E90002020202020206F20204020206F6F6F6FA7
:100EA00023232323232323232020583420202020DE
:100EB00023232323232020202048202020202020FB
:100EC0002048202020202020204820202020202DC5
:100ED0002020202020206F20204020206F6F6F6F67
:100EE00023232323232323232020202020203D20CD
:100EF000203D202020232348482323202020204851
:100F00004820203D204020484823202320232048FB
:100F1000482323232323204848202323232D20480C
:100F200048205834232020482020202D20203D20F8
:100F3000202D2020202323484823236F20206F4882
:100F400048202020204020484823202020232048DB
:100F5000482323202323204848202323232D2048CF
:100F600048585858342320482048484848482020AA
:100F7000204820203D203D202048202023232323DB
:100F800020483D20202020202048232020202020F1
:100F900040482020202020342323232020202323E6
:100FA0002323232323232323204848484848202061
:100FB000204820203D206F20204820202323232369
:100FC00020483D20202020202048232020202020B1
:100FD00040482020202020342323232020202323A6
:100FE0002323232020232323202320202D202020DF
:100FF0002023202020202020205820202023482388
:101000002023232320204820202320204020482064
:101010002023206F232048203423206F20204820C5
:101020002323232323232323202323202D20202095
:10103000202323202020206F2058582020234823BD
:10104000202323232020482020232D204020482017
:101050002023206F232048203423202020204820D4
:101060002323232323232323206F20202020202019
:10107000206F3D2020203D2048232320202323488B
:10108000486F20202020204848202020232323238D
:1010900048402020202020342323202320232323E2
:1010A0002323202320232323206F202020202D20D2
:1010B000206F3D2020203D2048232320202323484B
:1010C000482D20202020204848202020232323238F
:1010D0004840202020585834232320232023232332
:1010E0002323202320232323346F6F6F6F6F6F6FB1
:1010F0006F6F20206F6F6F6F206F6F6F6F206F208B
:101100006F206F6F6F6F206F6F6F6F206F6F6F6FDC
:101110006F6F6F206F206F6F206F6F6F6F6F6F6FCC
:10112000206F6F406F6F206F346F6F6F6F6F6F6FD7
:101130006F6F20206F6F6F6F20236F6F6F206F2096
:101140006F206F6F6F6F206F6F6F6F206F6F6F6F9C
:101150006F6F6F206F206F6F206F6F6F6F6F6F6F8C
:10116000206F6F406F6F206F2020202034202020C0
:101170002020202048202020206F206F206F20205A
:1011800020232023202320236F206F206F20202066
:10119000232023202320232020402020206F6F2085
:1011A0002323232323232323202020203420202013
:1011B00020202020482020206F20202020202020B8
:1011C00020232023202320236F206F202020202075
:1011D000232023202320232020402020206F6F2045
:1011E0002323232323232323202020203D202020CA
:1011F000202020203D202020203D20203D20202098
:1012000048232048232023234820204820205834E6
:101210004823204823202323484020482020202DF5
:101220002323202323202323203D20203D20202072
:10123000203D20203D202020203D20203D2020203A
:1012400048232048232023234820204820205834A6
:1012500048232023232020234840206F2020202DB6
:101260002323202323202323202020202020203458
:1012700020202020202323232020206F206F2020C7
:101280002020206F2020202020202020206F2020C0
:10129000206F202020202020402020206F20202090
:1012A0002323232323232323202020202020203412
:1012B00020202020202323232020202020206F20D6
:1012C000202020206F6F6F2020206F206F6F202044
:1012D000206F6F2020202020402020206F20202001
:1012E00023232323232323236F2020202320342080
:1012F000204823202320232048202D20232058204D
:10130000482020206F2323482048206F2020204899
:1013100048206F20202020484820202020202040E6
:10132000232323232323232320202020232034208E
:10133000204823202320232048202D20232058200C
:10134000482020206F2323482048206F2020204859
:1013500048206F20202020484820202020202040A6
:101360002323232323232323402020202020203431
:1013700023236F202020232320206F2020202020C3
:1013800020206F202020202020206F2020202020BF
:1013900020206F202020202020206F2020202020AF
:1013A00020206F20202020204020202020202034BA
:1013B0002323202020202323202020202020202021
:1013C000202020202020202020202020202020201D
:1013D000202020202020202020202020202020200D
:1013E0006F6F6F6F6F6F6F2020202020203D2020B7
:1013F00020202023233D232020202323233D23239B
:10140000206F2323233D2323203D4020206F2034C1
:10141000206F232323202323202020232320232065
:101420006F2020202020202020202020203D202050
:1014300020202023233D232020202323233D23235A
:10144000206F2323233D2323203D4020206F583449
:10145000206F232323202323202020232320232025
:101460006F202020202D202040202D582D582D5831
:10147000582D2D58582D2D2020582D2D2D58585889
:1014800023232323232323202D2D2D2D2020202013
:1014900020202D202020202020202323232323232D
:1014A0002020585858585834406F2D582D582D58D2
:1014B000582D2D58582D2D2020582D2D2D58585849
:1014C00023232323232323202D2D2D2D20202020D3
:1014D00020202D20202020202020202020202023FC
:1014E000202058585858583420585858585858346C
:1014F00048232323232323234820202D2D2020206D
:1015000048202020202D2020482020202D2D202064
:10151000482020202D2020206F2020202020202047
:10152000402020206F2020202058583E5858583402
:1015300048232323232323234820202D2D2020202C
:1015400048202020202D2020482020203C2D202015
:10155000482020202D2020206F2020202020202007
:10156000402020206F2020204020203E206F20207F
:10157000236F482320206F2023232323232023208D
:101580002034233D232323204823233D20203C20B7
:1015900048233D582023232020206F20482D23203E
:1015A00020202320482323234020203E206F20207A
:1015B000232D482320202D202323232323202320D1
:1015C0002034233D232323204823233D20203C2077
:1015D00020236F582023232020206F20482D5820BF
:1015E00020202320486F2323402020202020203447
:1015F0006F6F6F6F6F6F2020202020202020202011
:10160000206F6F6F6F6F6F6F2020202020202020B1
:101610006F6F6F6F6F6F6F202020202020202020A1
:10162000206F6F6F6F6F6F6F40202020202020345D
:101630006F236F236F2320202020202020202020B4
:10164000206F6F6F236F236F202020202020202009
:101650006F236F236F6F6F202020202020202020F9
:10166000206F6F6F236F236F2020202034202020D5
:101670002020202048202020202020202020202042
:10168000206F20202020206F206F20232023206F18
:101690006F20202320236F2020482323202323484A
:1016A0002048203C403E204820202020342020207C
:1016B000202020202020202020202020202020202A
:1016C000206F20202020206F206F203D203D206FA4
:1016D0006F20202320236F2020486F6F206F6F48DA
:1016E0002048203C403E2048203420232320202036
:1016F000202D2323232020202020202323402020AE
:1017000020202320232320202020232023232020C7
:1017100020202320232323202020206F6F2020201F
:1017200020206F6F6F6F20202040206F232020200B
:10173000202323232320202020202D23232020208A
:101740002020232023232020202023202323342073
:1017500020202320232323202020206F6F202020DF
:1017600020206F6F6F6F2020232323234023232308
:101770002323232048202323345820204820205886
:1017800023232320482048232D2023204820486F4E
:101790002348206F6F2048232348202020204823FF
:1017A00023482323232323232323232340232323C7
:1017B0002323232048202323345820204820205846
:1017C00023232320482048232D2023204820486F0E
:1017D000234820206F20482323482020202048230E
:1017E0002348232323232323202020203D2034208B
:1017F0002020482323202348206F486F232023489C
:10180000206F206F3C202348482323232320234894
:101810004820203E3D202048482323232320202306
:1018200048204023232020232D2020203D20342029
:101830002020482323202348202D482D23202348DF
:10184000206F206F3C202348482323232020234857
:101850004820203E3D2020584823232323202023B6
:1018600048204023232020232D20202023202D200A
:1018700020206F20582020202020232023232348AD
:10188000482323236F484848482020202320232032
:101890004820206F232023232040206F232058340A
:1018A00023232323232323232D20202023202D2003
:1018B00020206F2058202020202023202323232095
:1018C000482323236F4848204820202020204820F8
:1018D0004820206F202023232040206F20205834D0
:1018E00023232323232023232020202020202034CF
:1018F00020202020202023232020202020202020E2
:1019000020202020232320202020202020202020D1
:1019100020202323206F6F6F40202020206F6F6FC7
:1019200023232323232323232D2020202020583446
:1019300020202020202023232020202020202020A1
:101940002020202023232020202020202020202091
:1019500020202323206F6F6F40202020206F6F6F87
:1019600023232323232323230040240FFF80F00F6E
:101970000FFF800FFFC0F00F0FFFC00FFFE0F00F51
:101980000FFFE00FFFF0F00F0FFFF00FF8F0F00F78
:101990000FF8F00FF9F0F00F0FF9F00FFFE0F00F74
:1019A0000FFFE00FFFC0FFFF0FFFC00FFFC0FFFFE3
:1019B0000FFFC00FFFE0FFFF0FFFE00FF9F0FFFF89
:1019C0000FF9F00FF8F0FFFF0FF8F00FFFF0FFFF37
:1019D0000FFFF00FFFE07FFE0FFFE00FFFC03FFCA7
:1019E0000FFFC00FFF801FF80FFF800000000000F6
:1019F000000000007E000030000000018181C35B18
:101A0000000000020042269C800000040022A586FF
:101A10001800000400259E49240000080015003429
:101A20004400000800147C074400000800138404EC
:101A3000880000090090020B08000004C320011C6C
:101A4000900000047E2000E06000000200400120C1
:101A500000000C018180024000003C007E0001205B
:101A600000000C0000000CA000001600000013A0F5
:101A70000000160000002020000017000000204099
:101A800000000C0000001F8000001E080638697F5F
:101A90003928EE08060C3E7ADE88DC080638107815
:101AA0005C38EE08061C224141221C080600FEFE9E
:101AB00000EFEF0806427E42427E4208060060F0D8
:101AC000BFF26708063E636377777F0806187442A3
:101AD0007418180806182E422E181808067E425A46
:101AE00042427E0806181E181010380807020488A3
:101AF0004850302008078244281028448203053FBC
:101B0000213F0A100A1208120E1C0E0C1E0C141A89
:101B100014161F161E131E1E1B1E1E1F1E3F213FC6
:101B20003A2F3A173D173F213F181F02040A041F9E
:101B30000E04040E1F0A1F0A0E0E1F04110E2E257E
:101B40002E2F2A2E262929021F02081F08150E04EF
:101B5000040E150E15151B151B040604040C0400B9
:101B600000000017000300031F0A1F16371A19048C
:101B7000130A153A000300000E11110E000A040AA0
:101B8000040E040030000404040010001804031FB5
:101B9000111F121F101D151711151F07041F1715F0
:101BA0001D1F151D01011F1F151F17151F000A00FE
:101BB000003200040A110A0A0A110A040115020E71
:101BC00011171E051E1F150A0E110A1F110E1F15D3
:101BD000111F05010E111D1F041F111F1108100FE9
:101BE0001F041B1F10101F061F1E040F0E110E1FB7
:101BF00009060E112E1F051A121509011F011F10CB
:101C00001F0F180F1F0C1F1B041B031C0319151398
:101C1000001F11030418111F0002010220202000E0
:101C200001020C121E1F120C0C12120C121F0C1AA5
:101C300014041E05242A1E1F021C141D1020201D22
:101C40001F0814111F101E041E1E021C0C120C3E35
:101C50000A040C123E1E040214160A020F120E1081
:101C60001E0E100E1E081E120C1226281E322A26C8
:101C7000041E21001F00211E040102013F213F0517
:101C8000077F4141417F3E5B4F5B3E3E6B4F6B3E6A
:101C9000183C783C18183C7E3C181C577D571C1C7F
:101CA0005E7F5E1C007E43437E007E73737E007EFB
:101CB0007F7F7E7F4141417F30483A060E06297979
:101CC00029067F4141417F60703F02042A1C361C77
:101CD0002A7F3E1C080000081C3E7F14227F22142D
:101CE0003C3C3C7EFF18423C817E3E6375633E3E39
:101CF000616B633E3E636B6B3E04027F0204102007
:101D00007F201008082A1C08081C2A0808143E55C1
:101D10004122637569756310181C1810040C1C0CA3
:101D200004000000000000005F0000000700070042
:101D3000147F147F14042A7F2A1023130864623648
:101D4000495620500008070300001C2241000041B2
:101D5000221C002A1C3E1C2A08083E080800E060DD
:101D6000000008080808080060600000601008040F
:101D7000033E5149453E00427F4000625149494679
:101D80002141494D331814127F1027454545393CF0
:101D90004A4949304121110907364949493606491E
:101DA00049291E000024000000806400000814225D
:101DB000410014141414140041221408020159099A
:101DC000063E415D594E7C1211127C7F49494936CD
:101DD0003E414141227F4141221C7F494949417F87
:101DE000090909013E414151327F0808087F00413D
:101DF0007F41002041413F017F081422417F404044
:101E000040407F020C027F7F0204087F3E41414137
:101E10003E7F090909063E416141BE7F09192946F5
:101E2000264949493201017F01013F4040403F1F9F
:101E30002040201F3F4038403F63140814630304D0
:101E40007804036151494543007F41410003040880
:101E500010600041417F0004020102048080808004
:101E600080000307080020545478407F28444438F9
:101E70003844444428384444287F3854545418087B
:101E80007E09090218A4A49C787F08040478004401
:101E90007D4000006080847D7F1010284400417FD9
:101EA00040007C047804787C080404783844444476
:101EB00038FC1824241818242418FC7C080404086E
:101EC0000854545420043F4444203C4040207C1C8F
:101ED0002040201C3C4020403C44281028444C908A
:101EE00090907C4464544C44000836410000007FCC
:101EF00000000041360800180408100C7F414141E1
:101F00007F0A4E6F2053442063617264206F720A0F
:101F10006E6F204C4F414445522E4845580A0A15D1
:101F20003A45786974001D20466C617368696E6774
:101F30000A20206C6F616465722E2E2E0A0A444FAF
:101F40004E2754205455524E204F464621004E4FA6
:101F500020424154544552590A0A504C4541534578
:101F60000A5455524E204F4646001773617665005D
:101F7000166261636B001574797065000A0A0A15B0
:101F80003A6F6B617920163A6564697400596F7510
:101F900020656E74657265640A00540A03E18186E7
:101FA0007F3E186D830F0F0E0183866033186DC35B
:101FB000198F1803C38E6033186DE330CF1803C335
:101FC0009E603630CDE360CF3006C79E7E3E30CD7A
:101FD000B360CF300CC6F6603330D9B660CF33CFA4
:101FE000CCF66061B0DB1E60CF30D86CE6C061B06B
:101FF000DB1E618F19986CC6C063B19B0E330F0F47
:10200000B078C6FF7E1F1B061E0F17534400161321
:102010007800161314001510200015201000000081
:10202000050089300802380249786814000045002C
:102030006801000005006801380100000500380152
:1020400068010000F6E8DBCFC3B8AEA49B928A8299
:102050007B746E68625C57524E4945413E3A373454
:10206000312E2C29272523216C2070200101F70314
:102070000101FF0300000000240027002A000000E7
:102080000000250028002B0000000000230026008F
:1020900029000404040404040404020202020202EB
:1020A000030303030303010204081020408001021C
:1020B000040810200102040810200000000700029C
:1020C0000100000304060000000000000000AD1045
:1020D00011241FBECFEFD8E0DEBFCDBF11E0A0E0DE
:1020E000B1E0ECEEFFE502C005900D92AC3FB10708
:1020F000D9F714E0ACEFB1E001C01D92A73AB107E7
:10210000E1F710E2C0EDD0E204C02297FE010E9488
:10211000F02FCE3CD107C9F70E94BD2C0C94F42FB0
:102120000C940000DC0101C06D9341505040E0F779
:102130000895982F969596959695E2E9F2E0E90F25
:10214000F11D877021E030E002C0220F331F8A9515
:10215000E2F78081822B8083089510924B021092C7
:102160004A0287EF91E090934902809348020895D4
:102170000F931F9308E412E0C8010E94CD2081E074
:1021800080934E021092510210925202C8016DEFDC
:102190007AE10E943C1FC80160E071E00E944B2E72
:1021A000C8016BE071E00E944B2EC80163E171E051
:1021B0000E944B2E1F910F910895FF920F931F9332
:1021C000F82E162F8EE2809351028CE080935202FB
:1021D000FF2019F06EE171E002C061E271E088E475
:1021E00092E00E944B2E1A3030F488E492E064E2D0
:1021F00071E00E944B2E88E492E0612F4AE050E0AB
:102200000E94E62DFF2019F064E271E002C066E250
:1022100071E088E492E00E944B2E88E492E060E056
:102220000E942A1B88E492E066E44BE02AE00AE080
:102230000E94FC1B88E492E061E00E942A1BE12FCF
:10224000E695E695E695F0E0EE56FD4F808190E04C
:10225000177002C0959587951A95E2F780FD03C027
:1022600024EF3AE102C02BEE3AE188E492E066E422
:102270004BE00E94191E88E492E060E00E942A1B55
:1022800088E492E06EE242E124E10AE00E94FC1B55
:1022900088E492E061E00E942A1B8EE28093510262
:1022A00082E180935202FF2019F464E271E002C0DF
:1022B00068E271E088E492E00E944B2E80919102E6
:1022C000882319F46AE271E002C06EE271E088E4EA
:1022D00092E00E944B2EFF2019F464E271E002C0EC
:1022E00066E271E088E492E00E944B2E1F910F910C
:1022F000FF900895CF93DF93C0E0D0E0FE01EE564B
:10230000FD4F8DE994E0BE0140810E94EF292196A6
:10231000CD30D10599F78DE994E06DE070E0409102
:1023200091020E94EF29DF91CF9108951F93CF93DF
:10233000DF93C0918102D09182020E94B81080E0A8
:102340006C2F0E94DD1010E08CEF91E00E94602362
:102350008823D1F386E092E066E00E94F81A882391
:1023600031F08CEF91E069E679E10E94772586E013
:1023700092E064E00E94F81A882369F188E492E010
:102380000E94CD2010924E02D0938202C09381020F
:10239000BE0146E0660F771F4A95E1F780E090E0C6
:1023A000FC01E60FF71FE859FF4FE491DC01A35C45
:1023B000BE4FEC9301968034910591F710928C02F8
:1023C00010928B0210928E0210928D021092900247
:1023D00010928F025FC086E092E065E00E94F81ADA
:1023E000882349F088E492E00E94CD2010924E02AA
:1023F0000E947A114FC086E092E062E00E94F81AD3
:102400008823A9F080919102112339F090E088236C
:1024100009F491E0909391020AC02196882311F467
:10242000C0FD2196C336D10514F0C0E0D0E086E0AF
:1024300092E060E00E94F81A8823A1F08091910256
:10244000112339F090E0882309F491E090939102F0
:1024500009C02197882311F4C0FD2197D7FF02C03E
:10246000C3E6D0E086E092E061E00E94F81A88239B
:1024700039F486E092E063E00E94F81A882329F09C
:1024800080E0112309F481E0182F812F6C2F0E9426
:10249000DD105ACFDF91CF911F9108958091810275
:1024A000909182020196909382028093810201971B
:1024B0000E94991080919102882359F480918102A1
:1024C0009091820280FF05C00196909382028093D2
:1024D000810280918102909182028336910524F0DD
:1024E00010928202109281020E947A112091810240
:1024F0003091820256E0220F331F5A95E1F780E0B7
:1025000090E0FC01E20FF31FE859FF4FE491DC017A
:10251000A35CBE4FEC9301968034910591F7109225
:102520008C0210928B0210928E0210928D021092E9
:10253000900210928F020895CF93DF93C0E0D0E015
:102540008DE994E0BE010E94E829FE01EE56FD4FA0
:1025500080832196CD30D10599F78DE994E06DE027
:1025600070E00E94E82980939102DF91CF91089555
:102570008CEF91E00E947D2581E0809314020E94FF
:102580009C124091910230E005C082E0380F343651
:1025900008F044C0E32FE695E695E695F0E0EE56A8
:1025A000FD4F808190E0232F277002C0959587957D
:1025B0002A95E2F780FF32C0442339F381E0E6CF69
:1025C000232F30E0309382022093810266E0220FB5
:1025D000331F6A95E1F780E090E0FC01E20FF31F02
:1025E000E859FF4FE491DC01A35CBE4FEC930196E8
:1025F0008034910591F710928C0210928B02109208
:102600008E0210928D021092900210928F028CEF27
:1026100091E069E679E10E9477250895343681F6E4
:1026200020E030E0CFCF8F929F92AF92BF92CF92B7
:10263000DF92EF92FF920F931F937C01162F81E29E
:10264000882E82E0982E03E8A02E01E0B02E6701CC
:10265000B4E0CC0CDD1CBA95E1F7CA0CDB1CC4015C
:1026600060E0F601448520E0012F0E947926C40134
:1026700061E0F601408120E00E947926F601208584
:102680002195C40162E042850E947926E4E0EE0CC7
:10269000FF1CEA95E1F7F60124812A53C40163E0A7
:1026A00046810E947926AE0CBF1CC401F5016281EF
:1026B000F6014685212F0E94CC271F910F91FF9094
:1026C000EF90DF90CF90BF90AF909F908F90089544
:1026D000CF93DF93EC01DB014830510588F437FDDF
:1026E0000FC02830310564F4F90163E0EE0FFF1FDD
:1026F0006A95E1F7E40FF51FE35CFE4F608101C0CE
:1027000060E080918302909184024817590741F458
:1027100080918502909186022817390709F460E4B8
:10272000C830D10588F4B7FD0FC0A830B10564F4F6
:10273000FD0193E0EE0FFF1F9A95E1F7EC0FFD1FEF
:10274000E35CFE4FE08101C0E0E0603439F0E0324C
:1027500009F4AEC0E43309F0A2C0AAC0EE2309F424
:102760006DC0E33209F46AC0ED3309F467C0EF3697
:1027700069F580918D0290918E0220918B023091AB
:102780008C02820F931F20917F013091800182176C
:1027900093070CF084C083E0AA0FBB1F8A95E1F772
:1027A000AC0FBD1FA35CBE4F80E28C9381E090E034
:1027B00060E070E00E94131380918B0290918C0274
:1027C000019690938C0280938B0269C0ED3269F57B
:1027D00080918D0290918E0220918B0230918C021B
:1027E000820F931F20917F01309180018217930700
:1027F0000CF055C0F3E0AA0FBB1FFA95E1F7AC0F40
:10280000BD1FA35CBE4F80E28C9381E090E060E04E
:1028100070E00E94131380918D0290918E020196B8
:1028200090938E0280938D023AC0E83509F05EC025
:1028300080918D0290918E02009719F480E090E0D3
:1028400012C0019790938E0280938D02E3E0AA0F4D
:10285000BB1FEA95E1F7AC0FBD1FA35CBE4F80E242
:102860008C9384E090E060E070E00E94131317C046
:102870008091890290918A022817390799F484E39C
:10288000808310C081E090E09093900280938F024B
:1028900085E090E060E070E00E94131303C020E048
:1028A00030E002C021E030E0C901DF91CF9108950E
:1028B00073E0AA0FBB1F7A95E1F7AC0FBD1FA35CB5
:1028C000BE4F6C93F90193E0EE0FFF1F9A95E1F76D
:1028D000E40FF51FE35CFE4F80E280838091870266
:1028E0009091880248175907E9F6C2CFD093840225
:1028F000C0938302B0938602A0938502E43391F6DD
:10290000C1CFAF92BF92CF92DF92EF92FF920F931F
:102910001F93CF93DF938C019B018830910510F0BA
:1029200090E024C0FB013196F7FD60C0E830F1056E
:102930000CF05CC0B3E0EE0FFF1FBA95E1F7E80FB3
:10294000F91FE35CFE4F908152C02830310574F4CA
:10295000F901A3E0EE0FFF1FAA95E1F7E00FF11FC9
:10296000E35CFE4F8081883409F444C0E2E0EE2E3F
:10297000F12CE20EF31EE70173E0CC0FDD1F7A9518
:10298000E1F7C00FD11FC35CDE4FCC24DD2414C09F
:102990000830110540F4F7FC06C088E0E816F104A1
:1029A00014F4988101C090E00894C11CD11C0894D3
:1029B000E11CF11C28969501992379F0903211F0D1
:1029C000943359F459010894A11CB11CC801B501F4
:1029D000A8010E946813892BD9F6CD2859F080E010
:1029E00090E060E070E00E94131304C090E037FFB5
:1029F000ACCFBCCFDF91CF911F910F91FF90EF90A3
:102A0000DF90CF90BF90AF900895CF92DF92EF927A
:102A1000FF920F931F93CF93DF9307E010E098E3AB
:102A2000C92ED12C27C0F70180818D3371F08091A0
:102A3000830290918402C817D90759F480918502C6
:102A4000909186020817190721F4CE01B8010E945F
:102A5000811421960894E11CF11CC830D10519F7A6
:102A60000150104088EF9FEFC80ED91E9FEF0F3F17
:102A7000190749F08DE3E82E81E0F82EEC0CFD1CDF
:102A8000C0E0D0E0D0CFDF91CF911F910F91FF90A8
:102A9000EF90DF90CF900895CF93DF934091830222
:102AA00050918402A0918502B0918602BD016F5FB2
:102AB0007F4F4830510588F477FD0FC068307105AD
:102AC00064F4FB0123E0EE0FFF1F2A95E1F7E40F0A
:102AD000F51FE35CFE4F208101C020E083E99AE10D
:102AE00090937E0180937D014830510508F07DC0B0
:102AF00077FD15C06830710594F4FB0193E0EE0F8B
:102B0000FF1F9A95E1F7E40FF51FE35CFE4F80810C
:102B1000883429F4CA019D010E946813EFC0B7FDF3
:102B200014C0A830B1058CF4FD0183E0EE0FFF1F47
:102B30008A95E1F7E40FF51FE35CFE4FE081EC338B
:102B400009F4DCC0EE3309F4D9C077FD10C0683059
:102B500071056CF4FB0133E0EE0FFF1F3A95E1F7CE
:102B6000E40FF51FE35CFE4F80818823B9F4B7FDC5
:102B70003CC0A830B105CCF5FD0123E0EE0FFF1FEE
:102B80002A95E1F7E40FF51FE35CFE4F808188345E
:102B900061F5CA01BD010E94811462C0B7FD25C064
:102BA000A830B10514F5FD0193E0EE0FFF1F9A95D3
:102BB000E1F7E40FF51FE35CFE4F80818834A9F450
:102BC000203219F0243309F099C0CA019D010E94F6
:102BD0006813EC01609185027091860280918302F6
:102BE000909184020E9481148BC020918B023091BD
:102BF0008C022115310589F480918D0290918E020D
:102C0000892B59F4CA01BD010E94811486E090E02D
:102C100060E070E00E94131371C04830510500F568
:102C2000FD013197F7FD1CC0E830F105CCF483E0DD
:102C3000EE0FFF1F8A95E1F7E40FF51FE35CFE4FEF
:102C40008081882369F0803209F461C0843309F0FF
:102C50005BC05DC08C3309F45AC08E3309F457C091
:102C600080E090E0D5CF73E0AA0FBB1F7A95E1F723
:102C7000A40FB51FA35CBE4F8FE68C93215030404C
:102C800030938C0220938B0218C020918D023091DA
:102C90008E0221153105B9F063E0AA0FBB1F6A95BA
:102CA000E1F7A40FB51FA35CBE4F8DE28C932150BA
:102CB000304030938E0220938D0282E090E060E0FD
:102CC00070E00E941313209185023091860240919A
:102CD000830250918402B90161507040CA010E9480
:102CE00068136091850270918602809183029091B1
:102CF00084020E948114C1E0D0E002C0C0E0D0E0B4
:102D0000CE01DF91CF910895883409F0A3CF21152A
:102D1000310509F4BACFA7CF8BE99AE190937E01F0
:102D200080937D014091830250918402209185021D
:102D30003091860248305105A8F4B90161507040C5
:102D400077FD10C0683071056CF4FB01B3E0EE0F45
:102D5000FF1FBA95E1F7E40FF51FE35CFE4F90818A
:102D6000992319F480E090E039C037FD3CC0283049
:102D70003105CCF5F901A3E0EE0FFF1FAA95E1F7AD
:102D8000E40FF51FE35CFE4F8081883461F59834D1
:102D900021F0903211F0943331F5CA010E9468138A
:102DA0000895E830F10574F433E0EE0FFF1F3A9513
:102DB000E1F7E40FF51FE35CFE4F8081882311F0FB
:102DC000883421F00E944C15892B89F48BE99AE113
:102DD00090937E0180937D0186E090E060E070E05A
:102DE0000E9413130895F9013196DAF6EBCF089596
:102DF0004091830250918402BA016F5F7F4F20910E
:102E00008502309186026830710588F437FD0FC065
:102E10002830310564F4F90193E0EE0FFF1F9A9515
:102E2000E1F7E60FF71FE35CFE4FA08101C0A0E0D1
:102E30008BE89AE190937E0180937D01109280024D
:102E400068307105A0F437FD12C0283031057CF4DC
:102E5000F90183E0EE0FFF1F8A95E1F7E60FF71FF8
:102E6000E35CFE4FE081EE2311F0EC3341F580E0AE
:102E700090E060E070E00E941313089583E99AE106
:102E800090937E0180937D0180E090E060E070E0AF
:102E90000E94131340918302509184022091850275
:102EA00030918602CA010296B9014F5F5F4F02C09E
:102EB000CB01B9010E9468130E9405150895AD3336
:102EC000B9F7DCCF4091830250918402BA0161507E
:102ED000704020918502309186026830710588F437
:102EE00037FD0FC02830310564F4F90183E0EE0F9F
:102EF000FF1F8A95E1F7E60FF71FE35CFE4FA08105
:102F000001C0A0E08BE89AE190937E0180937D015F
:102F100081E08093800268307105A0F437FD12C013
:102F2000283031057CF4F901B3E0EE0FFF1FBA95AC
:102F3000E1F7E60FF71FE35CFE4FE081EE2311F0AF
:102F4000EE3341F580E090E060E070E00E94131302
:102F5000089583E99AE190937E0180937D0180E05A
:102F600090E060E070E00E94131340918302509162
:102F700084022091850230918602CA010297B9012C
:102F80004150504002C0CB01B9010E9468130E9419
:102F900005150895AD33B9F7DCCF6F927F928F920C
:102FA0009F92AF92BF92CF92DF92EF920F931F93B7
:102FB000CF93DF938CEF91E00E946023882309F484
:102FC000A8C086E092E066E00E94F81A882379F0B3
:102FD00080918F0290919002892B19F00E944E12DD
:102FE00006C08CEF91E069E679E10E94772586E0E2
:102FF00092E065E00E94F81A882341F088E492E0AC
:103000006DEF7AE10E943C1F0E94961186E092E0EB
:1030100064E00E94F81A8823A1F180918F029091B8
:103020009002892B19F00E944E122BC02091810230
:103030003091820246E0220F331F4A95E1F780E08B
:1030400090E0FC01E20FF31FE859FF4FE491DC012F
:10305000A35CBE4FEC9301968034910591F71092DA
:103060008C0210928B0210928E0210928D0210929E
:10307000900210928F0283E090E060E070E00E9486
:10308000131386E092E060E00E94F81A882359F05A
:1030900080918F0290919002892B19F00E944E121C
:1030A00002C00E94621786E092E062E00E94F81A75
:1030B000882359F080918F0290919002892B19F00A
:1030C0000E944E1202C00E94F81686E092E061E073
:1030D0000E94F81A882359F080918F0290919002F3
:1030E000892B19F00E944E1202C00E948C1686E0B5
:1030F00092E063E00E94F81A882359F080918F02D1
:1031000090919002892B19F00E944E1202C00E94E9
:103110004C1580918F0290919002892B61F088E488
:1031200092E060E041E00E942E1B88E492E061E0C2
:103130000E94C42006C088E492E061E040E00E9462
:103140002E1BCC24DD248824992410E23BE8632E36
:103150003AE1732E64C0F50180818E3349F18F33DB
:103160007CF4843371F1853334F48332A9F08D32E9
:1031700009F042C017C08C33F1F08D33E9F51EC061
:10318000883599F089352CF4803431F18834A1F5F3
:1031900006C08F3689F502C12BEA3AE101C123EB63
:1031A0003AE1FEC02BEB3AE1FBC023EC3AE1F8C078
:1031B0002BEC3AE1F5C023ED3AE1F2C02BED3AE118
:1031C000EFC0D0938802C0938702D0928A02C09247
:1031D000890223EE3AE1E4C0D0938402C0938302D3
:1031E000D0928602C092850270927E0160927D012B
:1031F00010928002F501108321960894A11CB11C45
:10320000C830D10509F0A7CF0894C11CD11C88E0B3
:1032100090E0880E991E98E0C916D10449F02DE37C
:10322000A22E21E0B22EA80CB91CC0E0D0E093CFB2
:103230002091390130913A0180918302909184026A
:10324000289FB001299F700D389F700D1124209187
:103250003B0130913C018091850290918602289F2C
:10326000A001299F500D389F500D112420917D0100
:1032700030917E0188E492E000E0E09080020E94BC
:10328000871E88E492E060E440E020E30E94F21BA5
:1032900088E492E061E44AE223EE3AE1EE240E94FF
:1032A000871E88E492E06FE77CE10E943C1F89E47E
:1032B0008093510289E28093520260918102709161
:1032C000820288E492E04AE050E00E94382E209189
:1032D00039012C5F40917F015091800180913B0129
:1032E00090913C01489F8001499F100D589F100DFF
:1032F00011240C5F88E492E064E440E10E94321CF7
:1033000020913B012E5F88E492E063E440E10E945B
:10331000F21B60913901685B20913B012E5F88E4CC
:1033200092E040E10E94F21B92E1C92ED12CC0E054
:10333000D0E011C088E492E066E44C2D23EA3AE143
:1033400000E0EE240E94871E80913B0190913C0199
:10335000C80ED91E219680918B0290918C02C817BD
:10336000D90744F3C0E0D0E011C088E492E066E4FD
:103370004C2D2BEB3AE100E0EE240E94871E809159
:103380003B0190913C01C80ED91E219680918D027F
:1033900090918E02C817D90744F31FC023EA3AE17F
:1033A0008091390190913A01C89FB001C99F700D79
:1033B000D89F700D112480913B0190913C01C89ED3
:1033C000A001C99E500DD89E500D112488E492E0B2
:1033D00000E0EE240E94871E0FCFDF91CF911F9156
:1033E0000F91EF90DF90CF90BF90AF909F908F9014
:1033F0007F906F900895882319F48CB5806202C085
:103400008CB58F7D8CBD08959CB5937F982B9CBD0A
:1034100008952CB5382F33702C7F322B3CBD2DB541
:1034200090E0959587959595879581702E7F822B55
:103430008DBD08958AE061E00E94CC2B8AE061E0B6
:103440000E948D2B8CB580618CBD8CB580648CBD49
:103450008DE061E00E948D2B8BE061E00E948D2B5E
:103460000895FC0181E08083089585E070E00E946A
:103470001D2A08956F927F928F929F92AF92BF9272
:10348000CF92DF92EF92FF920F931F93CF93DF9330
:10349000EC0189819A818C0124E0000F111F2A958B
:1034A000E1F7081B190B85E10E94FB29BC01600FA5
:1034B000711F84E0769567958A95E1F77A83698331
:1034C0008881882381F12E813F816217730710F470
:1034D000B90106C0888599858617970708F4BC014D
:1034E00000D000D080E090E040E050E0E884F98433
:1034F00000E010E0AD80BB24CC24DD246C80772478
:1035000088249924EDB7FEB7618272828382948207
:103510000E94732C6B830F900F900F900F9085E09B
:1035200070E00E941D2ADF91CF911F910F91FF90B3
:10353000EF90DF90CF90BF90AF909F908F907F9053
:103540006F900895FC018CE39FE09383828384E075
:10355000818381E084870895CF93DF93EC018C858C
:1035600090E08F719070892B69F584E10E94FB29AE
:10357000AA2797FDA095BA2FBC01CD010E947C2EF1
:1035800026EE3FE34EEC50E40E94082F0E944E2EA0
:103590009B01AC017B836A836115710589F084E02E
:1035A0008983B901FE0120E084819581681779073C
:1035B00010F429830AC02F5F32962430A9F702C085
:1035C0008FEF89838C858F5F8C87DF91CF910895F2
:1035D000FC0188E0808389E0818387E0828386E044
:1035E000838384E0848382E0858381E186830895F8
:1035F00020E0FC01E60FF11D8781813009F421E014
:10360000822F08950F931F93CF93DF93EC0110E067
:103610000FEF888162E00E948D2B88810E94202C10
:103620002F81892B19F42F5F2F8307C0222349F0A4
:103630002F3F11F41F8201C00F83888160E00E9438
:103640008D2B1F5F2196173021F7DF91CF911F91AE
:103650000F910895FC01678F60A30895FC01678FA7
:1036600040A30895FC016435A8F547FD33C04033FD
:103670008CF5878D942F959595959595772767FD72
:1036800070954770882399F0E4E59E02F0011124BB
:10369000E60FF71FE156FD4F81E090E002C0880F72
:1036A000991F4A95E2F72081282B20830895E4E5AD
:1036B0009E02F0011124E60FF71FE156FD4F81E055
:1036C00090E002C0880F991F4A95E2F7809520810B
:1036D000282320830895AF92BF92CF92DF92EF927A
:1036E000FF920F931F93CF93DF93EC01162FF42ECD
:1036F000E22EAA24402F552747FD50958F2D99275C
:1037000087FD9095481B590B57FF03C05095419575
:103710005F4F2E2D332727FD3095812F992787FD69
:103720009095281B390B37FF03C0309521953F4FEB
:103730002417350744F4AA24A3948F2DF12E182FB3
:10374000802F0E2DE82EE11634F48E2DE12E182F49
:10375000802F0F2DF82EDE2CD11A202F332727FD96
:1037600030958F2D992787FD9095281B390B37FFB2
:1037700003C0309521953F4FB22EF0161CF0CC249B
:10378000CA9402C0CC24C3948D2DD7FC8F5F082F20
:10379000059511C0AA2021F0CE016F2D412F03C045
:1037A000CE01612F4F2D0E94321B0B1907FF02C063
:1037B000FC0C0D0D1F5FE1166CF7DF91CF911F918F
:1037C0000F91FF90EF90DF90CF90BF90AF90089552
:1037D0000F93042F322F262F2150230F0E946B1B93
:1037E0000F9108950F93362F042F0150020F232FAE
:1037F0000E946B1B0F9108959F92AF92BF92CF9240
:10380000DF92EF92FF920F931F93CF93DF936C01A0
:10381000B62E942EA02EC0E0D0E0E62EFF24E7FCCA
:10382000F094022F112707FD10950E0D1F1D06C0E5
:10383000C601492D2A2D0E94F21B21966B2D6C0F7B
:10384000CE018E0D9F1D8017910794F3DF91CF91CC
:103850001F910F91FF90EF90DF90CF90BF90AF90AE
:103860009F900895CF92DF92EF92FF920F931F9354
:103870007C01162FD42EC22E0E94E81B4D2D4150E4
:10388000400FC701612F2C2D0E94E81BC701612F3B
:103890004D2D202F0E94F21B11501C0DC701612FCE
:1038A0004D2D202F0E94F21B1F910F91FF90EF9042
:1038B000DF90CF9008952F923F925F926F927F9208
:1038C0008F929F92AF92BF92CF92DF92EF92FF9230
:1038D0000F931F93DF93CF9300D000D000D0CDB7CC
:1038E000DEB79E838D83C62ED42EEE24E394E21A97
:1038F0008EEF289F502C1124842E8A94962E9A9411
:10390000A42EA394B62EB394F22E662423E0722E36
:1039100010E0C801847090709A838983F801E27086
:10392000F070FC83EB8398E0292E312C2022312289
:103930000170107054C0E7FC04C0FA94F2E05F0E0E
:10394000E50C639489819A81892B71F04F2D4D0D7F
:103950008D819E816B2D0E94321B6F2D6C0D8D8190
:103960009E814A2D0E94321BEB81FC81EF2B71F06E
:103970004D2D4F198D819E816B2D0E94321B6F2D15
:103980006C0D8D819E81482D0E94321B21143104C3
:1039900071F06C2D6F198D819E814A2D0E94321B12
:1039A0004F2D4D0D8D819E81692D0E94321B011579
:1039B000110571F06C2D6F198D819E81482D0E942B
:1039C000321B4D2D4F198D819E81692D0E94321B16
:1039D000E70CF2E07F0E8A949A94A394B3946F1448
:1039E0000CF4A9CF26960FB6F894DEBF0FBECDBF5C
:1039F000CF91DF911F910F91FF90EF90DF90CF90CB
:103A0000BF90AF909F908F907F906F905F903F900E
:103A10002F9008954F925F926F927F928F929F9214
:103A2000AF92BF92CF92DF92EF92FF920F931F93CC
:103A3000CF93DF93EC01A62E742E9E2DFF24F394DA
:103A4000F21A8EEF289F802C1124B42EBA9453E0E2
:103A5000C52ECE0CE22EDD2443E0942E10E031E0A2
:103A6000432E512C40225122692E63940270107013
:103A700034C0F7FC04C0EA9482E0880EF80CD394BA
:103A80004114510489F06D2D6A0D472D4E192E2DCC
:103A9000220F260DCE010E94F21B6E2D6A0DCE0163
:103AA0004B2D2C2D0E94F21B0115110589F06A2D5A
:103AB0006D19472D4E192E2D220F260DCE010E9475
:103AC000F21B6A2D6E19CE014B2D2C2D0E94F21B7C
:103AD000F90C82E0980EBA94C80EDE1454F2DF910D
:103AE000CF911F910F91FF90EF90DF90CF90BF90FB
:103AF000AF909F908F907F906F905F904F900895C0
:103B00007F928F929F92AF92BF92CF92DF92EF926D
:103B1000FF920F931F936C01962EA42EF22E7E2CF3
:103B2000760E1EEFE19E102D1124812E820E672D40
:103B3000282D0E94E81BB02EBA0CBA94C601672D3E
:103B40004B2D282D0E94E81BAE0C100FC601692DCD
:103B50004A2D212F0E94F21BF90CFA94C6016F2DF9
:103B60004A2D212F0E94F21BC601672D4A2D2E2DB2
:103B700001E00E945B1CFE18C6016F2D4A2D2E2D00
:103B800002E00E945B1CBE18C6016F2D4B2D2E2D2E
:103B900004E00E945B1CC601672D4B2D2E2D08E012
:103BA0000E945B1C1F910F91FF90EF90DF90CF90D0
:103BB000BF90AF909F908F907F9008958F929F922B
:103BC000AF92BF92CF92DF92EF92FF920F931F932B
:103BD0006C01162FA42E922EF02EBE2C8E2C860E4B
:103BE0002EEFE29EE02C11242E2D290D682D0E942F
:103BF000FC1BAB0CFA94FE0C1150190D1B19C601DD
:103C0000612F4A2D2B2D01E0EF2C0E940A1DC601C9
:103C1000682D4A2D2B2D02E00E940A1D1F910F9145
:103C2000FF90EF90DF90CF90BF90AF909F908F90DC
:103C300008953F924F925F926F927F928F929F92E0
:103C4000AF92BF92CF92DF92EF92FF920F931F93AA
:103C5000CF93DF934C01362E442EF901A490319678
:103C600054906F010894C11CD11C8A2D992787FD9F
:103C70009095079668E070E00E949E2FE62EFF2444
:103C8000E7FCF09400E0C0E0D0E060E8662E712C24
:103C900026C0E12FE595E595E595FF27E7FDF09531
:103CA000EC0FFD1FEC0DFD1DE4912E2F30E0812F58
:103CB0008770A30102C0559547958A95E2F72423A2
:103CC0003523232B31F0612F630DC4014B2D0E944E
:103CD000321B1F5F1A15ECF20F5FCE0DDF1D0515AD
:103CE00024F410E0B02EB40CF5CFDF91CF911F91EA
:103CF0000F91FF90EF90DF90CF90BF90AF909F908B
:103D00008F907F906F905F904F903F9008952F928B
:103D10003F924F925F926F927F928F929F92AF925B
:103D2000BF92CF92DF92EF92FF920F931F93DF9398
:103D3000CF9300D000D00F92CDB7DEB73C01862ED6
:103D40004A83F901BE2C002329F4EE2019F40E94C5
:103D5000191E7AC0A490319694901F010894211CDA
:103D6000311C037009838A2D992787FD909507964A
:103D700068E070E00E949E2F462E552447FC509428
:103D8000C92CCA94FF241D821C824A2D41504B83AA
:103D900056C0E02FE595E595E595FF27E7FDF09501
:103DA0008C819D81E80FF91FE20DF31DE4912E2F08
:103DB00030E0802F8770A0E8B0E002C0B595A795ED
:103DC0008A95E2F72A233B23232B61F1B981B13095
:103DD00051F0B13028F0B23049F0B33061F409C08D
:103DE000102FEF2C08C0ED2C1F2D05C01D2DEC2C25
:103DF00002C01C2DE02EBB2069F0E3E0BE228B2D1B
:103E0000B0FE03C0FA2DF11B1F2F81FF03C0492D07
:103E10004E19E42E180D5A81E50EC301612F4E2D67
:103E20000E94321B0F5FDA940A150CF4B2CFF394A0
:103E30008C819D81840D951D9D838C83CA94F9147A
:103E40001CF4DB8000E0F0CF0F900F900F900F90EC
:103E50000F90CF91DF911F910F91FF90EF90DF9026
:103E6000CF90BF90AF909F908F907F906F905F901A
:103E70004F903F902F900895DC01FB0184918F5F5C
:103E800014968C931497319684918F5F15968C932A
:103E9000159731965E96FC93EE935D9708953F9249
:103EA0004F925F926F927F928F929F92AF92BF924A
:103EB000CF92DF92EF92FF920F931F93CF93DF93F6
:103EC000EC01862EA42E422F102F3F8C23E52617BF
:103ED0000CF4ABC03FE23A150CF4A7C0C02EDD24B1
:103EE0008C8190E001979C01C29EC001C39E900D01
:103EF000D29E900D1124262F332727FD3095820F57
:103F0000931F181619060CF090C08D8190E09C014B
:103F1000C29EC001C39E900DD29E900D11242A2DE9
:103F2000332727FD3095820F931F181619060CF0C2
:103F30007CC09924442E55246DC09C0121503040F2
:103F40004217530711F460E00EC0429EC001439E29
:103F5000900D529E900D1124840F951FED8DFE8DB6
:103F6000E80FF91F64914C9DC0014D9D900D5C9D23
:103F7000900D1124682C680EBB24792C780C3FC05E
:103F8000E62EFF2460FF19C0113039F44B2D4A0D85
:103F9000CE01672D0E94321B2EC02C9DC0012D9D8D
:103FA000900D3C9D900D11244A2D480FCE01662D99
:103FB000212F012F0E94FC1B1EC098A18F8D9817E6
:103FC000D1F09F8F113039F44B2D4A0DCE01672D62
:103FD0000E94321B0FC02C9DC0012D9D900D3C9D59
:103FE000900D11244A2D480FCE01662D212F012F4F
:103FF0000E94FC1B3F8EF594E7946E2DB3942B2DFD
:10400000332727FD30958D8190E0281739070CF470
:10401000B7CF9394492D552747FD50958C8190E05B
:10402000481759070CF489CF3F8EDF91CF911F912C
:104030000F91FF90EF90DF90CF90BF90AF909F9047
:104040008F907F906F905F904F903F9008950F9367
:10405000CF93DF93EC01262F6A3049F48D81988548
:10406000899F802D11249A85980F9A8726C06D30DC
:1040700029F169854A8508850E944F1F9C816885C2
:10408000969F402D11248985480F49878F81882369
:10409000A9F0552747FD5095699F9001112484E5AB
:1040A00090E0821B930B8417950744F49D81699FD0
:1040B000902D11248A85890F8A87198681E090E0E6
:1040C000DF91CF910F9108951F93CF93DF93EC0170
:1040D000162FF8948E8560E00E94CC2B8F851816E1
:1040E0001CF460E00E94CC2B1EBD0DB407FEFDCF7A
:1040F0008EB58F8518161CF461E00E94CC2B789445
:10410000DF91CF911F910895FF920F931F93CF934B
:10411000DF93EC01FF2400E010E06F2D6064CE011E
:104120000E946420CE0160E80E9464208E8561E0D8
:104130000E94CC2B8F8518161CF460E00E94CC2BBB
:10414000F801E156FD4F90E080818EBD0DB407FE71
:10415000FDCF8EB59F5F31969435B1F78F851816D8
:104160001CF461E00E94CC2BF3940C5A1F4F86E0A4
:10417000F81699F6CE0160E40E946420DF91CF9199
:104180001F910F91FF9008958FE992E06FEF7FEFFD
:1041900048EF51E00E9492100895CF93DF93DC0125
:1041A00088EF91E0EFE9F2E0EF019C0119922150D4
:1041B0003040E1F719961C9219971A961C92DF91DC
:1041C000CF910895EF920F93CF93DF93EC014D873A
:1041D0006C872E87E88A0F8781E088878F8F18A2E7
:1041E0008F83EDEFFAE184918F5F8C833196849118
:1041F0008F5F8D833196FE8FED8F0E941A1A81E0BA
:104200000E94FB1985E00E94091A8CE00E94041AA2
:104210008D8561E00E948D2B8C8561E00E948D2B45
:104220008E8561E00E948D2B888918161CF461E050
:104230000E948D2B8F8518161CF461E00E948D2B37
:10424000888918166CF460E00E94CC2B6AE070E05C
:1042500080E090E00E94F92A888961E00E94CC2BDE
:10426000EC852E2F332727FD3095F901EE56FF4DB3
:10427000E491F0E0EE0FFF1FE258FF4D859194911D
:104280009C8B8B8B2A553F4DF90184918A8FED854C
:104290002E2F332727FD3095F901EE56FF4DE4917F
:1042A000F0E0EE0FFF1FE258FF4D859194919A8B3D
:1042B000898B2A553F4DF9018491898FEF852E2FE7
:1042C000332727FD3095F901EE56FF4DE491F0E0DC
:1042D000EE0FFF1FE258FF4D859194919E8B8D8BC1
:1042E0002A553F4DF90184918B8FEE852E2F332770
:1042F00027FD3095F901EE56FF4DE491F0E0EE0F09
:10430000FF1FE258FF4D85919491988F8F8B2A550E
:104310003F4DF90184918C8FCE0161E20E946420AF
:10432000CE0164E10E9464208B8587FF02C08FE785
:104330008B876B856068CE010E946420CE0160E2AD
:104340000E946420CE016CE00E946420CE010E9495
:104350008420DF91CF910F91EF900895CF93DF9359
:10436000DC01E0E8FFE685919491ED01C95ADF4F49
:10437000AD0143595F4F8150904C09F04EC0E6E9C2
:10438000FFE6E491E883E7E9FFE6E4911496EC9315
:104390001497E8E9FFE6E4911596EC931597E9E99F
:1043A000FFE68591949117969C938E931697EBE96F
:1043B000FFE68591949119969C938E931897EDE959
:1043C000FFE6E4919996EC939997EEE9FFE6E49184
:1043D0009896EC939897EFE9FFE6E491EA01E88379
:1043E000E0EAFFE6859194915D969C938E935C97AD
:1043F000E2EAFFE6859194915F969C938E935E9797
:10440000E4EAFFE68591949191969C938E93909720
:10441000E6EAFFE68591949132C08CE38883149696
:104420001C9214972FEF15962C93159780E293E02A
:1044300017969C938E93169784ED93E019969C9310
:104440008E93189781E099968C93999798968C9370
:104450009897FA0120838CEA9DE05D969C938E9359
:104460005C978EED9DE05F969C938E935E9784E7BC
:104470009EE091969C938E9390978CE39FE0939609
:104480009C938E939297DF91CF910895EF92FF9234
:104490000F931F93CF93DF937C018C01045B1F4F1D
:1044A000C8010E94CD20C80166E27FE10E94F82C7D
:1044B000C8010E94842083E00E94091A82E391E0EF
:1044C000EEEFFFE3099582E590E0E80EF91EF701B3
:1044D0001082C80161E07FE10E94432DC8010E9463
:1044E0008420E701C854D040CE010E94021BCE01B7
:1044F00064E00E94F81A882339F462E370E080E0F7
:1045000090E00E94F92AF0CFDF91CF911F910F9197
:10451000FF90EF9008950F931F93CF93DF93EC01DB
:104520008C01045B1F4FC80161E040E00E942E1B1C
:10453000FE01EB5AFF4FC05BDF4F85E59881891B79
:10454000808326961882C655D040698D613061F10E
:10455000613028F0888D653008F03FC039C0CE0149
:1045600085960E946926CE0160E00E94351AC80136
:104570000E94CD20C8016EE47FE10E94F82CC801A2
:104580000E94842083B7817F846083BF83B781606A
:1045900083BF83B7816083BF889583B78E7F83BFD6
:1045A00083B78E7F83BF1FC0C259DF4F8881998137
:1045B000AA81BB818F709070A070B0700897A10520
:1045C000B10518F4C80167E00CC0C80168E709C06C
:1045D000882349F06B5FC80104C0882321F0C8011B
:1045E0006FE20E941B2DDF91CF911F910F910895D3
:1045F000AF92BF92CF92DF92EF92FF920F931F93F1
:10460000CF93DF93EC01CD57DF4F8881C358D04063
:10461000882309F44AC08C3010F010E002C01CE07E
:10462000181BCC5ADF4F81E08883C455D0406CE41E
:10463000C62ED12CCC0EDD1EC60160E00E942A1BC6
:1046400051E5A52EB12CAC0EBD1EF50100814DE249
:10465000F42E4F2D401B410F0D5FC60160E024E595
:1046600033E0E32E0E94DE1DC60161E00E942A1B9A
:10467000F5010081F01AF10E0D5FC60160E04F2DCB
:1046800024E50E94801DCB5ADF4F84E08993F50119
:104690008081181B115D1883AB9669917991C601D1
:1046A0000E94F82C888181508883DF91CF911F91DF
:1046B0000F91FF90EF90DF90CF90BF90AF90089553
:1046C000AF92BF92CF92DF92EF92FF920F931F9320
:1046D000CF93DF93EC01EDE7AE2EB12CA80EB91EFF
:1046E000F501E080F180028113810E94C52AE61A5B
:1046F000F70A080B190B7CE7C72ED12CCC0EDD1E58
:10470000F601808190E0A0E0B0E08E159F05A00743
:10471000B10708F081C08E0108581F4FF801808151
:104720009181A281B3810097A105B10509F474C0FC
:104730000E94C52AF6012081620F711D811D911D05
:10474000F5016083718382839383FE01E259FF4FF9
:1047500080819181A281B3810196A11DB11D8083C9
:104760009183A283B383F801108211821282138293
:104770000E94D32ACC58DF4F688379838A839B8336
:10478000C457D040CE010E943A1ACE010A960E9428
:10479000021BCE0148960E94AC1A8E010B5D1F4F82
:1047A000C8010E945126C8010E94C827C8010E9462
:1047B000382981E026C0CE010E94F822CE010E9455
:1047C0008B228E01045B1F4FC8010E948420CE5AA9
:1047D000DF4F8881C255D040882319F4C8010E9458
:1047E000CD200E94D32AC858DF4F688379838A83FB
:1047F0009B83249728813981621B730B7A936A9378
:1048000080E0DF91CF911F910F91FF90EF90DF90AB
:10481000CF90BF90AF900895C858DF4F888199819D
:10482000AA81BB81C857D0400097A105B10541F7C7
:10483000C2CF2F923F924F925F926F927F928F9250
:104840009F92AF92BF92CF92DF92EF92FF920F931F
:104850001F93DF93CF93CDB7DEB72B970FB6F894A6
:10486000DEBF0FBECDBF9B878A877A8369835C8357
:104870004B838C0103591F4FF8018081882309F471
:104880001DC18A859B858D5A9F4FFC011082129213
:10489000E255F040FB87EA87108E9CE4E92EF12C6C
:1048A000EE0EFF1EC70161E00E942A1B8AE0282E3F
:1048B000312C8A859B85280E391EB5E26B2E712C12
:1048C000680E791EE981FA81F491FD83A5E58A2EAF
:1048D000912C880E991EF6E5CF2ED12CC80ED91E2C
:1048E000E0E54E2E512C480E591E8F5A9F4F9F8344
:1048F0008E837EE6A72EB12C8A859B85A80EB91ED5
:10490000198708878A859B850E9460238823D1F3B5
:104910009D81992311F410E003C0EE81FF81108185
:10492000C70160E040E02AE93FE10E94191E8B8147
:104930009C81892B41F0145FC70160E0412F2B81DE
:104940003C810E94191EF40110828CE0F6018083E4
:10495000C70169817A810E94F82CF201208130E040
:10496000C901880F991F820F931F909581959F4FC2
:104970008D5AF4018083EE81FF81208130E0C901EE
:10498000880F991F820F931F909581959F4F835D8C
:10499000F6018083F501808184FF04C0C7016AE1CC
:1049A00070E203C0C70166E170E20E94432DF2018C
:1049B000208130E0C901880F991F820F931F9095C5
:1049C00081959F4F8D5AF4018083F60180818F5F1E
:1049D0008083EA85FB8580A5882321F0C70162E1F9
:1049E00070E203C0C7016EE070E20E94432DF20145
:1049F000808190E09C01220F331F280F391F3095D2
:104A000021953F4F2D5AF4012083F60180818F5F5D
:104A10008083C7016AE070E20E94432DC10165E016
:104A20000E94F81A882351F0EA85FB8560A56F5F24
:104A3000C3010E94A129C3010E949B29C10164E016
:104A40000E94F81A882399F4E885F9856081262F59
:104A500030E040E050E0F50180819181A281B38196
:104A600082179307A407B50708F16F3FF9F08A850D
:104A70009B8583599F4F9B878A878FEFEA85FB85AC
:104A80008083ED56F040FB87EA87C30160E00E9417
:104A90005526C3010E94952981E0EA85FB85808F18
:104AA0000DC08A859B850E9446222CCFC10166E0FD
:104AB0000E94F81A882309F425CFF3CF2B960FB65E
:104AC000F894DEBF0FBECDBFCF91DF911F910F9144
:104AD000FF90EF90DF90CF90BF90AF909F908F901E
:104AE0007F906F905F904F903F902F900895AB0113
:104AF0006FE170E20E9419240895AF92BF92CF92A5
:104B0000DF92EF920F93CF93DF936C018CE790E0ED
:104B1000C80ED91E82E3F601808381E090E0A0E018
:104B2000B0E0B293A293929382936F0185EF9FEFCF
:104B3000C80ED91E8FEFF601808383E99FEFC80E60
:104B4000D91EC6010E94AE21C6010E94311AC601BB
:104B50006FEF0E94351A4AE0A42EB12CAC0CBD1C9C
:104B6000C5010E94E81AC5010E94021BC6014896B1
:104B70000E94A21AC601845B9F4F6DE04BE020E1CA
:104B80000FE03EE0E32E0E94E220E601A596CE0172
:104B90000E94AE29C50165E00E94F81A882329F019
:104BA000CE0160E00E94A12906C0CE0160E270E261
:104BB00040E00E94E425DF91CF910F91EF90DF90CC
:104BC000CF90BF90AF900895CF93DF93EC01442333
:104BD00069F41D8A1B8A1AA219A21E8A10929B04CC
:104BE00010929A04109298041092B400A42FB0E08E
:104BF0009E012A0F3B1FFD01EE0FFF1FEC0FFD1F53
:104C0000748763871896AA0FBB1FAC0FBD1F1D9238
:104C10001C9281E0F901818389E0848B178A118ECF
:104C2000138EDF91CF910895CF93DF939C01462F90
:104C3000A62FB0E0EC01CA0FDB1F8881882371F139
:104C40008981882359F5FD01EE0FFF1FE20FF31F45
:104C50008F8190E0880F991F0580F681E02DE80F85
:104C6000F91F859194915FEF8F3F950711F418829A
:104C700015C09A871496AA0FBB1FA20FB31F90E00E
:104C8000880F991FED91FC91E80FF91F65917491C0
:104C9000C9010E94E4258F818F5F8F83DF91CF91BF
:104CA000089560E00E9414260895FC01662369F4CB
:104CB000158A138A12A211A2168A10929B041092CE
:104CC0009A04109298041092B400E60FF11D11821C
:104CD0000895FC01158A138A12A211A2168A109255
:104CE0009B0410929A04109298041092B4001182BE
:104CF00008950F93CF93DF93EC01623009F440C025
:104D0000633030F4662359F0613009F04AC00BC0BB
:104D1000633009F43BC0643009F043C03DC0C00FAC
:104D2000D11D4C8B3EC0602F70E0DB01AA0FBB1F72
:104D3000AC0FBD1F842F90E0880F991F1D962D91F9
:104D40003C911E97280F391FF901859194915E9629
:104D50009C938E935D97FC0145915491A42FFE0185
:104D6000E60FF71F478F252F3327842F90E0281752
:104D7000390708F4A52F6C0F7D1FFB01A0A311C0FC
:104D8000FC01E00FF11D478B208F0BC0FC01E00FF1
:104D9000F11D418F228F05C0FC01E00FF11D438FF3
:104DA000248FDF91CF910F9108955F926F927F9240
:104DB0008F929F92AF92BF92CF92DF92EF92FF922B
:104DC0000F931F93CF93DF936C01562EE62EFF2493
:104DD000DC01AE0DBF1D11968C911197882309F44B
:104DE000C7C053968C915397882309F0C1C087019F
:104DF000000F111F0C0D1D1DE7012896CC0FDD1FA4
:104E0000CC0DDD1D68817981660F771FF801438520
:104E10005485640F751FFB012591349121153105CF
:104E200009F069C01F968C911F97813031F4198267
:104E30001882FA01259134915EC011961C92119747
:104E40008C91882391F0C601652D0E9414268881DB
:104E50009981880F991FD8011B96ED91FC911C97A1
:104E6000E80FF91F2591349146C0552009F080C004
:104E700055961C92559753961C925397F80112A27F
:104E800011A256961C92F701E556FB4F1082F701CE
:104E9000E656FB4F108228E934E0E20EF31ED701FC
:104EA0001C9280919804882311F080919B04809338
:104EB000B4005EC0A6E036952795AA95E1F76F701D
:104EC000422F4F71F5E036952795FA95E1F720517D
:104ED000C601052D0E9479268881998101969983C2
:104EE0008883880F991FD501ED91FC91E80FF91F78
:104EF0002591349114C04701880C991C68E0662EF6
:104F0000712C6E0C7F1CE301CC0FDD1FCC0DDD1D61
:104F10005601A80CB91CEBE0F0E0AE0EBF1EB901C3
:104F2000769567957695679520FDC4CFF601EE0DD1
:104F3000FF1D862F8F73828B338B13A28C0C9D1CCD
:104F4000D40192961C921E92919781E0858B28E95C
:104F500034E0E20EF31ED7018C93168AF301EE0FB4
:104F6000FF1FEC0DFD1D808191810196918380834F
:104F7000DF91CF911F910F91FF90EF90DF90CF9035
:104F8000BF90AF909F908F907F906F905F900895AB
:104F900060E00E94D5260895A22FB0E09C012A0F60
:104FA0003B1FF901628B438B13A2FD01EE0FFF1F24
:104FB000E80FF91F12A211A281E0F901858BA85612
:104FC000BB4F8C93168A0895DF92EF92FF920F9356
:104FD0001F93CF93DF937C01062F10E0DC01A00F1D
:104FE000B11F55968C915597882309F439C1539672
:104FF0008C915397882339F5662309F031C1559672
:105000001C92559753961C925397F801EE0FFF1F71
:10501000EE0DFF1D12A211A256961C92F801E55644
:10502000FB4F1082F801E656FB4F108208561B4FCB
:10503000F801108280919804882311F080919B04DC
:105040008093B4000DC1815053968C9353979396DF
:105050008C919397882309F069C0E801CC0FDD1F7C
:10506000CE0DDF1D89A19AA10196880F991FED8DA4
:10507000FE8DE80FF91F85919491282F2770949643
:105080002C939497AC01E3E056954795EA95E1F7A8
:105090009A0136952795892F992786958695959615
:1050A0008C9395972F73F7018281289F202D1124CF
:1050B00093962C939397F801E456FB4F41704083ED
:1050C00089A19AA101969AA389A35F962C915F97D3
:1050D00030E08217930750F190968C919097882337
:1050E00029F0281B31093AA329A320C06623F1F433
:1050F00055961C92559753961C9253971AA219A233
:1051000056961C92F801E556FB4F1082F801E656C0
:10511000FB4F1082F801E856FB4F108280919804F3
:10512000882311F080919B048093B400F701E00F75
:10513000F11F83A1815083A336893F5F368B42895B
:1051400025A1240F8285280F618D662311F4D22EAC
:105150000CC0832F992787FD909570E00E949E2FA9
:10516000828D869FD02C1124D20EF701E00FF11F03
:1051700024896789662371F0772767FD7095832FEF
:10518000992787FD90950E949E2F808D869F802D68
:105190001124280FF701E00FF11F638D662389F0BA
:1051A000832F992787FD909570E00E949E2FCB0159
:1051B00062E070E00E949E2F948D899F802D1124C3
:1051C000280F4F3331F0822F2A300CF089E0482F1E
:1051D00087FD40E0F8948D2D992787FD9095849662
:1051E00064E270E00E949E2FE82FFF27E7FDF09514
:1051F000EC5BFF4DE491D801A756BB4FEC93F70150
:10520000E00FF11F26A130E084A1992787FD90953A
:10521000B901689F9001699F300D789F300D11246E
:10522000F701838190E0B901689F9001699F300D7B
:10523000789F300D1124842F992787FD9095FC01CC
:105240002E9FC0012F9F900D3E9F900D1124F801BD
:10525000E656FB4F808305561B4FF80180837894F8
:10526000DF91CF911F910F91FF90EF90DF90089504
:1052700060E00E94E427089560919A04662381F11A
:10528000809197048F5F8093970490919904891778
:1052900038F130E080919804882309F431E03093AC
:1052A00098041092970480919C048823A9F080911F
:1052B000810123E4829FC0011124895B80938101D5
:1052C00090E070E00E948A2F80939B0405C080913B
:1052D0009B048093B40008953323C9F780E0F9CF8D
:1052E00008951F920F920FB60F9211242F933F93A0
:1052F0004F935F936F937F938F939F93AF93BF93DE
:10530000EF93FF930E943C29FF91EF91BF91AF91E2
:105310009F918F917F916F915F914F913F912F91CD
:105320000F900FBE0F901F9018956CE370E240E055
:105330000E94E42508956EE270E240E00E94E425B8
:105340000895FC01862F648170E06F5F7F4F99277D
:1053500087FD90950E949E2F838308950F93FC01F3
:1053600081E0828384E086A388E690E29687858741
:10537000CF0161E040E020E000E00E94792683E078
:1053800061E070E00E941D2AE1EBF0E08081887FFF
:1053900081608083F89410928000E1E8F0E0108250
:1053A000109285001092840088E191E0909389002A
:1053B0008093880080818860808380818160808381
:1053C000EFE6F0E080818260808378940F91089509
:1053D000F999FECF72BD61BDF89A80B50895F9992B
:1053E000FECF1FBA72BD61BD40BD0FB6F894FA9AE8
:1053F000F99A0FBE0895982F8E3008F09E5097703E
:10540000809182018295880F880F807C892B809300
:105410007C0080917A00806480937A0080917A0089
:1054200086FDFCCF2091780040917900942F80E098
:1054300030E0282B392BC90108951F93CF93DF93B8
:10544000182FEB0161E00E948D2B209709F44AC0D0
:10545000CF3FD10509F449C0E12FF0E0E654FF4DFC
:1054600084918330C1F0843028F4813051F082304F
:10547000B1F50CC0863019F1873049F1843079F5E7
:1054800014C084B5806884BDC7BD33C084B5806254
:1054900084BDC8BD2EC0809180008068809380004C
:1054A000D0938900C093880024C0809180008062DE
:1054B00080938000D0938B00C0938A001AC08091A3
:1054C000B00080688093B000C093B30012C0809198
:1054D000B00080628093B000C093B4000AC0C038AE
:1054E000D1051CF4812F60E002C0812F61E00E9491
:1054F000CC2BDF91CF911F9108951F920F920FB681
:105500000F9211242F933F938F939F93AF93BF9349
:105510008091A2049091A304A091A404B091A50449
:105520003091A6040196A11DB11D232F2D5F2D37AB
:1055300020F02D570196A11DB11D2093A604809344
:10554000A2049093A304A093A404B093A504809113
:105550009E0490919F04A091A004B091A104019693
:10556000A11DB11D80939E0490939F04A093A0045D
:10557000B093A104BF91AF919F918F913F912F91D3
:105580000F900FBE0F901F9018958FB7F894209131
:10559000A2043091A3044091A4045091A5048FBFAC
:1055A000B901CA0108959FB7F89420919E043091E3
:1055B0009F044091A0045091A10486B5A89B06C009
:1055C0008F3F21F02F5F3F4F4F4F5F4F9FBF542FB3
:1055D000432F322F2227280F311D411D511D82E0FC
:1055E000220F331F441F551F8A95D1F7B901CA01F5
:1055F00008959B01AC017FB7F89480919E0490912F
:105600009F04A091A004B091A10466B5A89B05C019
:105610006F3F19F00196A11DB11D7FBFBA2FA92FB1
:10562000982F8827860F911DA11DB11D62E0880F5C
:10563000991FAA1FBB1F6A95D1F7BC012DC0FFB7E8
:10564000F89480919E0490919F04A091A004B09141
:10565000A104E6B5A89B05C0EF3F19F00196A11D76
:10566000B11DFFBFBA2FA92F982F88278E0F911D2C
:10567000A11DB11DE2E0880F991FAA1FBB1FEA956B
:10568000D1F7861B970B885E9340C8F221503040BB
:105690004040504068517C4F21153105410551056E
:1056A00071F60895789484B5826084BD84B5816074
:1056B00084BD85B5826085BD85B5816085BDEEE61A
:1056C000F0E0808181608083E1E8F0E010828081F9
:1056D00082608083808181608083E0E8F0E0808167
:1056E00081608083E1EBF0E0808184608083E0EB87
:1056F000F0E0808181608083EAE7F0E0808184606F
:1057000080838081826080838081816080838081CA
:10571000806880831092C1000895CF93DF93482F53
:1057200050E0CA018A559F4DFC0134914E565F4DA1
:10573000FA018491882369F190E0880F991FFC0198
:10574000EC58FF4DA591B491FC01E258FF4DC59175
:10575000D491662351F42FB7F8948C91932F9095A0
:1057600089238C93888189230BC0623061F42FB721
:10577000F8948C91932F909589238C938881832B17
:1057800088832FBF06C09FB7F8948C91832B8C938E
:105790009FBFDF91CF910895482F50E0CA018654F2
:1057A0009F4DFC012491CA018A559F4DFC019491A3
:1057B0004E565F4DFA013491332309F440C0222341
:1057C00051F1233071F0243028F42130A1F022303F
:1057D00011F514C02630B1F02730C1F02430D9F4CF
:1057E00004C0809180008F7703C0809180008F7DFE
:1057F0008093800010C084B58F7702C084B58F7D00
:1058000084BD09C08091B0008F7703C08091B00043
:105810008F7D8093B000E32FF0E0EE0FFF1FE25882
:10582000FF4DA591B4912FB7F894662321F48C9184
:105830009095892302C08C91892B8C932FBF08955A
:10584000682F70E0CB0186549F4DFC012491CB0161
:105850008A559F4DFC0144916E567F4DFB019491FA
:10586000992319F420E030E03CC0222351F1233089
:1058700071F0243028F42130A1F0223011F514C049
:105880002630B1F02730C1F02430D9F404C0809123
:1058900080008F7703C0809180008F7D809380008F
:1058A00010C084B58F7702C084B58F7D84BD09C0D8
:1058B0008091B0008F7703C08091B0008F7D80937E
:1058C000B000892F90E0880F991F88579F4DFC01E9
:1058D000A591B4918C9120E030E0842311F021E077
:1058E00030E0C90108952F923F924F925F926F92DC
:1058F0007F928F929F92AF92BF92CF92DF92EF9260
:10590000FF920F931F93DF93CF93CDB7DEB73B0189
:105910004C0119012A016D897E898F89988D6A1938
:105920007B098C099D09621A730A840A950AA401ED
:1059300093010E946B2FE218F30804091509A801CE
:1059400097010E94D32F2A0D3B1D4C1D5D1DB901EF
:10595000CA01CF91DF911F910F91FF90EF90DF90DF
:10596000CF90BF90AF909F908F907F906F905F90FF
:105970004F903F902F9008950895CF93DF930E940A
:10598000522B0E94BC2C0E94B812C0E0D0E00E94B2
:10599000CD172097E1F30E940000F9CFCF92DF925C
:1059A000EF92FF920F931F93CF93DF937C016B01D4
:1059B0008A01C0E0D0E00FC0D6016D916D01D70122
:1059C000ED91FC910190F081E02DC7010995C80F80
:1059D000D91F015010400115110571F7CE01DF915B
:1059E000CF911F910F91FF90EF90DF90CF9008958E
:1059F000EF92FF920F931F93CF93DF937C018B0164
:105A0000C0E0D0E0F8010F5F1F4F6491662359F0AA
:105A1000D701ED91FC910190F081E02DC70109952E
:105A2000C80FD91FEFCFCE01DF91CF911F910F91FA
:105A3000FF90EF900895DC01ED91FC910190F081D1
:105A4000E02D09950895EF92FF920F931F938C011B
:105A5000DC01ED91FC910190F081E02D6DE0099564
:105A60007C01D801ED91FC910190F081E02DC801FD
:105A70006AE009959C012E0D3F1DC9011F910F91F0
:105A8000FF90EF900895EF92FF920F931F937C0188
:105A90000E94F82C8C01C7010E94232D9C01200F2D
:105AA000311FC9011F910F91FF90EF900895CF937F
:105AB000DF93EC016115710519F420E030E00FC0AF
:105AC000DB010D900020E9F71197A61BB70BE881C9
:105AD000F9810280F381E02DAD0109959C01C90196
